{
 "cells": [
  {
   "cell_type": "markdown",
   "source": [
    "# Analysing a single trade\n",
    "\n",
    "Pull a single trade out from the state and diagnose it.\n"
   ],
   "metadata": {
    "collapsed": false
   }
  },
  {
   "cell_type": "code",
   "execution_count": 12,
   "outputs": [],
   "source": [
    "from pathlib import Path\n",
    "from tradeexecutor.state.state import State\n",
    "\n",
    "state = State.read_json_file(Path(\"/Users/moo/code/ts/polygon-momentum-multipair.json\"))\n"
   ],
   "metadata": {
    "collapsed": false,
    "ExecuteTime": {
     "end_time": "2023-10-13T08:10:22.953894Z",
     "start_time": "2023-10-13T08:10:20.967220Z"
    }
   }
  },
  {
   "cell_type": "code",
   "execution_count": 13,
   "outputs": [
    {
     "name": "stdout",
     "output_type": "stream",
     "text": [
      "Examining position <Closed position #100 <Pair SAND-WMATIC spot_market_hold at 0x369582d2010b6ed950b571f4101e3bb9b554876f (0.3000% fee) on exchange 0x5757371414417b8c6caad45baef941abc7d3ab32> $0.7816690000000001>\n"
     ]
    }
   ],
   "source": [
    "position = state.portfolio.closed_positions[100]\n",
    "print(\"Examining position\", position)"
   ],
   "metadata": {
    "collapsed": false,
    "ExecuteTime": {
     "end_time": "2023-10-13T08:10:22.958054Z",
     "start_time": "2023-10-13T08:10:22.955219Z"
    }
   }
  },
  {
   "cell_type": "code",
   "execution_count": 14,
   "outputs": [
    {
     "name": "stdout",
     "output_type": "stream",
     "text": [
      "<Buy #377 2.622824354409008238626243595 SAND at 0.29802595974089785, success>\n",
      "<Buy #379 2.215391876186684580102090672 SAND at 0.2965334066001792, success>\n",
      "<Sell #382 4.838199837561253408 SAND at 0.28309868256504384, success>\n"
     ]
    }
   ],
   "source": [
    "for t in position.trades.values():\n",
    "    print(t)"
   ],
   "metadata": {
    "collapsed": false,
    "ExecuteTime": {
     "end_time": "2023-10-13T08:10:22.961552Z",
     "start_time": "2023-10-13T08:10:22.958251Z"
    }
   }
  },
  {
   "cell_type": "code",
   "execution_count": 15,
   "outputs": [
    {
     "name": "stdout",
     "output_type": "stream",
     "text": [
      "{'blockchain_transactions': [{'args': ('4838199837561253408',),\n",
      "                              'asset_deltas': [{'asset': '0xbbba073c31bf03b8acf7c28ef0738decf3695683', 'raw_amount': '-4838199837561253408'},\n",
      "                                               {'asset': '0x2791bca1f2de4661ed88a30c99a7a9449aa84174', 'raw_amount': '1301203'}],\n",
      "                              'block_hash': '0xc0f194a71f00dae93916377bc1e1073334325eb6e660e482669d2b1e0b480c8f',\n",
      "                              'block_number': 48521331,\n",
      "                              'broadcasted_at': datetime.datetime(2023, 10, 9, 18, 8, 49),\n",
      "                              'chain_id': 137,\n",
      "                              'contract_address': '0xa5E0829CaCEd8fFDD4De3c43696c57F7D7A678ff',\n",
      "                              'details': {'chainId': 137,\n",
      "                                          'data': '0x38ed17390000000000000000000000000000000000000000000000004324bd1e4e30ee20000000000000000000000000000000000000000000000000000000000014e3ab00000000000000000000000000000000000000000000000000000000000000a00000000000000000000000008dccffd0fb877890bd7c5b21941932a5d3eadea300000000000000000000000000000000000000000000000080000000000000000000000000000000000000000000000000000000000000000000000000000003000000000000000000000000bbba073c31bf03b8acf7c28ef0738decf36956830000000000000000000000000d500b1d8e8ef31e21c99d1db9a6444d3adf12700000000000000000000000002791bca1f2de4661ed88a30c99a7a9449aa84174',\n",
      "                                          'from': '0x8dccfFD0FB877890Bd7c5B21941932a5D3EaDea3',\n",
      "                                          'gas': 2000000,\n",
      "                                          'maxFeePerGas': 112802281126,\n",
      "                                          'maxPriorityFeePerGas': 30000000000,\n",
      "                                          'nonce': 613,\n",
      "                                          'to': '0xa5E0829CaCEd8fFDD4De3c43696c57F7D7A678ff',\n",
      "                                          'value': 0},\n",
      "                              'from_address': '0x8dccfFD0FB877890Bd7c5B21941932a5D3EaDea3',\n",
      "                              'function_selector': 'swapExactTokensForTokens',\n",
      "                              'included_at': datetime.datetime(2023, 10, 9, 18, 9, 3),\n",
      "                              'nonce': 613,\n",
      "                              'notes': 'For trade: <Sell #382 4.838199837561253408 SAND at 0.28309868256504384, started>\\n'\n",
      "                                       \"Asset deltas: [AssetDelta(asset='0xbbba073c31bf03b8acf7c28ef0738decf3695683', raw_amount=-4838199837561253408), \"\n",
      "                                       \"AssetDelta(asset='0x2791bca1f2de4661ed88a30c99a7a9449aa84174', raw_amount=1301203)]\",\n",
      "                              'other': {'adjusted_reserve_amount': '4838199837561253408', 'reserve_amount': '4838199837561253408'},\n",
      "                              'realised_gas_price': 156887,\n",
      "                              'realised_gas_units_consumed': 70163233989,\n",
      "                              'revert_reason': None,\n",
      "                              'signed_bytes': '0x02f9019681898202658506fc23ac00851a438a36a6831e848094a5e0829caced8ffdd4de3c43696c57f7d7a678ff80b9012438ed17390000000000000000000000000000000000000000000000004324bd1e4e30ee20000000000000000000000000000000000000000000000000000000000014e3ab00000000000000000000000000000000000000000000000000000000000000a00000000000000000000000008dccffd0fb877890bd7c5b21941932a5d3eadea300000000000000000000000000000000000000000000000080000000000000000000000000000000000000000000000000000000000000000000000000000003000000000000000000000000bbba073c31bf03b8acf7c28ef0738decf36956830000000000000000000000000d500b1d8e8ef31e21c99d1db9a6444d3adf12700000000000000000000000002791bca1f2de4661ed88a30c99a7a9449aa84174c080a0452ae511418666f659bda4749be3f3a260e75bc1647b8b9465476c056deec968a06340b1394c3233879908d6453be9d3586dc8df9bf86f9f1fce13dd516e273293',\n",
      "                              'stack_trace': None,\n",
      "                              'status': True,\n",
      "                              'transaction_args': (4838199837561253408,\n",
      "                                                   1369003,\n",
      "                                                   ['0xBbba073C31bF03b8ACf7c28EF0738DeCF3695683',\n",
      "                                                    '0x0d500B1d8E8eF31E21C99d1Db9A6444d3ADf1270',\n",
      "                                                    '0x2791Bca1f2de4661ED88A30C99A7a9449Aa84174'],\n",
      "                                                   '0x8dccfFD0FB877890Bd7c5B21941932a5D3EaDea3',\n",
      "                                                   9223372036854775808),\n",
      "                              'tx_hash': '0x4e880fa9a2f35b542a8c46ea2376dd795920701a2b05c16853f184a1f95e1bff',\n",
      "                              'type': <BlockchainTransactionType.hot_wallet: 'hot_wallet'>,\n",
      "                              'wrapped_args': None,\n",
      "                              'wrapped_function_selector': None}],\n",
      " 'broadcasted_at': datetime.datetime(2023, 10, 9, 18, 8, 49),\n",
      " 'claimed_interest': None,\n",
      " 'closing': None,\n",
      " 'cost_of_gas': Decimal('0.011007699290832243'),\n",
      " 'executed_at': datetime.datetime(2023, 10, 9, 18, 9, 3),\n",
      " 'executed_collateral_allocation': None,\n",
      " 'executed_collateral_consumption': None,\n",
      " 'executed_loan_update': None,\n",
      " 'executed_price': 0.283099509318823,\n",
      " 'executed_quantity': Decimal('-4.838199837561253408'),\n",
      " 'executed_reserve': Decimal('1.369692E-12'),\n",
      " 'failed_at': None,\n",
      " 'fee_tier': 0.005990999999999969,\n",
      " 'leverage': None,\n",
      " 'lp_fee_exchange_rate': None,\n",
      " 'lp_fees_estimated': 0.02898565522682932,\n",
      " 'lp_fees_paid': 0.004109076000000001,\n",
      " 'native_token_price': 0,\n",
      " 'notes': None,\n",
      " 'opened_at': datetime.datetime(2023, 10, 9, 18, 0),\n",
      " 'paid_interest': None,\n",
      " 'pair': {'base': {'address': '0xbbba073c31bf03b8acf7c28ef0738decf3695683',\n",
      "                   'chain_id': 137,\n",
      "                   'decimals': 18,\n",
      "                   'info_url': None,\n",
      "                   'internal_id': None,\n",
      "                   'liquidation_threshold': None,\n",
      "                   'token_symbol': 'SAND',\n",
      "                   'type': None,\n",
      "                   'underlying': None},\n",
      "          'exchange_address': '0x5757371414417b8c6caad45baef941abc7d3ab32',\n",
      "          'fee': 0.003,\n",
      "          'info_url': 'https://tradingstrategy.ai/trading-view/polygon/quickswap/sand-matic-2',\n",
      "          'internal_exchange_id': None,\n",
      "          'internal_id': 2636276,\n",
      "          'kind': <TradingPairKind.spot_market_hold: 'spot_market_hold'>,\n",
      "          'pool_address': '0x369582d2010b6ed950b571f4101e3bb9b554876f',\n",
      "          'quote': {'address': '0x0d500b1d8e8ef31e21c99d1db9a6444d3adf1270',\n",
      "                    'chain_id': 137,\n",
      "                    'decimals': 18,\n",
      "                    'info_url': None,\n",
      "                    'internal_id': None,\n",
      "                    'liquidation_threshold': None,\n",
      "                    'token_symbol': 'WMATIC',\n",
      "                    'type': None,\n",
      "                    'underlying': None},\n",
      "          'reverse_token_order': True,\n",
      "          'underlying_spot_pair': None},\n",
      " 'planned_collateral_allocation': None,\n",
      " 'planned_collateral_consumption': None,\n",
      " 'planned_loan_update': None,\n",
      " 'planned_max_slippage': 0.0025,\n",
      " 'planned_mid_price': 0.28480494901459025,\n",
      " 'planned_price': 0.28309868256504384,\n",
      " 'planned_quantity': Decimal('-4.838199837561253408'),\n",
      " 'planned_reserve': Decimal('1.369687999999999926890128486'),\n",
      " 'portfolio_value_at_creation': 13.948422,\n",
      " 'position_id': 100,\n",
      " 'post_execution_price_structure': {'block_number': None,\n",
      "                                    'lp_fee': [0.02898565522682932],\n",
      "                                    'market_feed_delay': None,\n",
      "                                    'mid_price': 0.2848047410804118,\n",
      "                                    'pair_fee': [0.003, 0.003],\n",
      "                                    'path': [{'base': {'address': '0x0d500b1d8e8ef31e21c99d1db9a6444d3adf1270',\n",
      "                                                       'chain_id': 137,\n",
      "                                                       'decimals': 18,\n",
      "                                                       'info_url': None,\n",
      "                                                       'internal_id': None,\n",
      "                                                       'liquidation_threshold': None,\n",
      "                                                       'token_symbol': 'WMATIC',\n",
      "                                                       'type': None,\n",
      "                                                       'underlying': None},\n",
      "                                              'exchange_address': '0x5757371414417b8c6caad45baef941abc7d3ab32',\n",
      "                                              'fee': 0.003,\n",
      "                                              'info_url': 'https://tradingstrategy.ai/trading-view/polygon/quickswap/matic-usdc',\n",
      "                                              'internal_exchange_id': None,\n",
      "                                              'internal_id': 93754,\n",
      "                                              'kind': <TradingPairKind.spot_market_hold: 'spot_market_hold'>,\n",
      "                                              'pool_address': '0x6e7a5fafcec6bb1e78bae2a1f0b612012bf14827',\n",
      "                                              'quote': {'address': '0x2791bca1f2de4661ed88a30c99a7a9449aa84174',\n",
      "                                                        'chain_id': 137,\n",
      "                                                        'decimals': 6,\n",
      "                                                        'info_url': None,\n",
      "                                                        'internal_id': None,\n",
      "                                                        'liquidation_threshold': None,\n",
      "                                                        'token_symbol': 'USDC',\n",
      "                                                        'type': None,\n",
      "                                                        'underlying': None},\n",
      "                                              'reverse_token_order': False,\n",
      "                                              'underlying_spot_pair': None},\n",
      "                                             {'base': {'address': '0xbbba073c31bf03b8acf7c28ef0738decf3695683',\n",
      "                                                       'chain_id': 137,\n",
      "                                                       'decimals': 18,\n",
      "                                                       'info_url': None,\n",
      "                                                       'internal_id': None,\n",
      "                                                       'liquidation_threshold': None,\n",
      "                                                       'token_symbol': 'SAND',\n",
      "                                                       'type': None,\n",
      "                                                       'underlying': None},\n",
      "                                              'exchange_address': '0x5757371414417b8c6caad45baef941abc7d3ab32',\n",
      "                                              'fee': 0.003,\n",
      "                                              'info_url': 'https://tradingstrategy.ai/trading-view/polygon/quickswap/sand-matic-2',\n",
      "                                              'internal_exchange_id': None,\n",
      "                                              'internal_id': 2636276,\n",
      "                                              'kind': <TradingPairKind.spot_market_hold: 'spot_market_hold'>,\n",
      "                                              'pool_address': '0x369582d2010b6ed950b571f4101e3bb9b554876f',\n",
      "                                              'quote': {'address': '0x0d500b1d8e8ef31e21c99d1db9a6444d3adf1270',\n",
      "                                                        'chain_id': 137,\n",
      "                                                        'decimals': 18,\n",
      "                                                        'info_url': None,\n",
      "                                                        'internal_id': None,\n",
      "                                                        'liquidation_threshold': None,\n",
      "                                                        'token_symbol': 'WMATIC',\n",
      "                                                        'type': None,\n",
      "                                                        'underlying': None},\n",
      "                                              'reverse_token_order': True,\n",
      "                                              'underlying_spot_pair': None}],\n",
      "                                    'price': 0.2830984758765991,\n",
      "                                    'read_at': None,\n",
      "                                    'side': False,\n",
      "                                    'token_in': None,\n",
      "                                    'token_out': None},\n",
      " 'price_structure': {'block_number': None,\n",
      "                     'lp_fee': [0.02898565522682932],\n",
      "                     'market_feed_delay': None,\n",
      "                     'mid_price': 0.28480494901459025,\n",
      "                     'pair_fee': [0.003, 0.003],\n",
      "                     'path': [{'base': {'address': '0x0d500b1d8e8ef31e21c99d1db9a6444d3adf1270',\n",
      "                                        'chain_id': 137,\n",
      "                                        'decimals': 18,\n",
      "                                        'info_url': None,\n",
      "                                        'internal_id': None,\n",
      "                                        'liquidation_threshold': None,\n",
      "                                        'token_symbol': 'WMATIC',\n",
      "                                        'type': None,\n",
      "                                        'underlying': None},\n",
      "                               'exchange_address': '0x5757371414417b8c6caad45baef941abc7d3ab32',\n",
      "                               'fee': 0.003,\n",
      "                               'info_url': 'https://tradingstrategy.ai/trading-view/polygon/quickswap/matic-usdc',\n",
      "                               'internal_exchange_id': None,\n",
      "                               'internal_id': 93754,\n",
      "                               'kind': <TradingPairKind.spot_market_hold: 'spot_market_hold'>,\n",
      "                               'pool_address': '0x6e7a5fafcec6bb1e78bae2a1f0b612012bf14827',\n",
      "                               'quote': {'address': '0x2791bca1f2de4661ed88a30c99a7a9449aa84174',\n",
      "                                         'chain_id': 137,\n",
      "                                         'decimals': 6,\n",
      "                                         'info_url': None,\n",
      "                                         'internal_id': None,\n",
      "                                         'liquidation_threshold': None,\n",
      "                                         'token_symbol': 'USDC',\n",
      "                                         'type': None,\n",
      "                                         'underlying': None},\n",
      "                               'reverse_token_order': False,\n",
      "                               'underlying_spot_pair': None},\n",
      "                              {'base': {'address': '0xbbba073c31bf03b8acf7c28ef0738decf3695683',\n",
      "                                        'chain_id': 137,\n",
      "                                        'decimals': 18,\n",
      "                                        'info_url': None,\n",
      "                                        'internal_id': None,\n",
      "                                        'liquidation_threshold': None,\n",
      "                                        'token_symbol': 'SAND',\n",
      "                                        'type': None,\n",
      "                                        'underlying': None},\n",
      "                               'exchange_address': '0x5757371414417b8c6caad45baef941abc7d3ab32',\n",
      "                               'fee': 0.003,\n",
      "                               'info_url': 'https://tradingstrategy.ai/trading-view/polygon/quickswap/sand-matic-2',\n",
      "                               'internal_exchange_id': None,\n",
      "                               'internal_id': 2636276,\n",
      "                               'kind': <TradingPairKind.spot_market_hold: 'spot_market_hold'>,\n",
      "                               'pool_address': '0x369582d2010b6ed950b571f4101e3bb9b554876f',\n",
      "                               'quote': {'address': '0x0d500b1d8e8ef31e21c99d1db9a6444d3adf1270',\n",
      "                                         'chain_id': 137,\n",
      "                                         'decimals': 18,\n",
      "                                         'info_url': None,\n",
      "                                         'internal_id': None,\n",
      "                                         'liquidation_threshold': None,\n",
      "                                         'token_symbol': 'WMATIC',\n",
      "                                         'type': None,\n",
      "                                         'underlying': None},\n",
      "                               'reverse_token_order': True,\n",
      "                               'underlying_spot_pair': None}],\n",
      "                     'price': 0.28309868256504384,\n",
      "                     'read_at': None,\n",
      "                     'side': False,\n",
      "                     'token_in': None,\n",
      "                     'token_out': None},\n",
      " 'repaired_at': None,\n",
      " 'repaired_trade_id': None,\n",
      " 'reserve_currency': {'address': '0x2791bca1f2de4661ed88a30c99a7a9449aa84174',\n",
      "                      'chain_id': 137,\n",
      "                      'decimals': 6,\n",
      "                      'info_url': None,\n",
      "                      'internal_id': None,\n",
      "                      'liquidation_threshold': None,\n",
      "                      'token_symbol': 'USDC',\n",
      "                      'type': None,\n",
      "                      'underlying': None},\n",
      " 'reserve_currency_allocated': Decimal('0'),\n",
      " 'reserve_currency_exchange_rate': 1.0,\n",
      " 'retry_of': None,\n",
      " 'slippage_tolerance': 0.05,\n",
      " 'started_at': datetime.datetime(2023, 10, 9, 18, 8, 47),\n",
      " 'trade_id': 382,\n",
      " 'trade_type': <TradeType.rebalance: 'rebalance'>}\n"
     ]
    }
   ],
   "source": [
    "t = position.trades[382]\n",
    "print(t.get_debug_dump())"
   ],
   "metadata": {
    "collapsed": false,
    "ExecuteTime": {
     "end_time": "2023-10-13T08:10:22.965829Z",
     "start_time": "2023-10-13T08:10:22.963903Z"
    }
   }
  }
 ],
 "metadata": {
  "kernelspec": {
   "display_name": "Python 3",
   "language": "python",
   "name": "python3"
  },
  "language_info": {
   "codemirror_mode": {
    "name": "ipython",
    "version": 2
   },
   "file_extension": ".py",
   "mimetype": "text/x-python",
   "name": "python",
   "nbconvert_exporter": "python",
   "pygments_lexer": "ipython2",
   "version": "2.7.6"
  }
 },
 "nbformat": 4,
 "nbformat_minor": 0
}
